:020000040800F2
:10000000B024002045350108FD2B0108FF2B010815
:10001000012C0108032C0108052C01080000000038
:1000200000000000000000000000000015C90008EA
:10003000072C010800000000BDC80008092C0108B9
:10004000093701080D370108113701081537010874
:10005000193701081D370108213701082537010824
:10006000293701082D3701083137010835370108D4
:10007000393701083D370108413701084537010884
:10008000493701084D370108513701085537010834
:10009000593701085D37010861370108112C010843
:1000A00065370108693701086D37010871370108A4
:1000B00075370108793701087D3701088137010854
:1000C00085370108893701088D3701089137010804
:1000D00095370108993701089D370108A1370108B4
:1000E000A5370108A9370108AD370108B137010864
:1000F000B5370108B9370108BD370108C137010814
:10010000C5370108C9370108CD370108D1370108C3
:10011000D5370108D9370108ADC50008DD3701081A
:10012000E1370108E5370108E9370108ED37010833
:10013000F1370108132C0108F5370108F9370108D8
:10014000FD370108013801080538010809380108A0
:100150000D3801081138010815380108193801084F
:100160001D380108213801082538010829380108FF
:100170002D38010831380108353801080000000029
:10018000393801083D3801087CB504006068DFF8A3
:10019000E41708606089142803DA200001F0E0FD0C
:1001A00073BDDFF8D4070168DFF8CC07406901F0C0
:1001B000F3FF002806D1DFF8C007007D10F0F00043
:1001C000E02800D1E9E7DFF8AC070068808902F099
:1001D00009F880B2000BC0B28000C0B2142805DB61
:1001E00021890200D2B292B2914200D2D5E7C0B2C8
:1001F000B0F11401DFF8842711800021DFF8802797
:10020000116061890200D2B292B291420CD3DFF840
:100210006C170988DFF86C271180C0B2414209B21F
:10022000200001F091FD53E02068002808D1DFF89C
:100230000C3DB222DFF85017DFF8040D01F0F4FF97
:100240007FF01301200001F07FFD6089DFF8341793
:100250000880DFF828070088DFF828170988451A82
:10026000DFF82007B0F9000000B2414209B22000D7
:1002700001F06AFD20684089ADB2A8428DD32068A4
:100280004068DFF8FC160860280000B2414209B25D
:10029000206801F059FD2089401B208160890028D9
:1002A00008D0DFF8983CCF22DFF8E016DFF8900C9A
:1002B00001F0BAFF208921680989884208D0DFF857
:1002C0007C3CD022DFF87C1CDFF8740C01F0ACFF22
:1002D000DFF8A0060068008801F084FFDFF89416BC
:1002E00009680880DFF88C060068408801F07AFF12
:1002F000DFF8801609684880DFF8780601684868EA
:1003000001F077FFDFF86C1609684860DFF8381CE9
:100310000860DFF860060168886801F06AFFDFF8AE
:10032000541609688860DFF8241C0860DFF844066A
:100330000068C08901F056FFDFF838160968C881E7
:10034000DFF830060068808901F04CFF10F03F00B4
:10035000DFF8FC1B0870DFF8F80B00780321084277
:1003600001D0012000E0002021894018DFF8E41BC3
:1003700008800025DFF8E00B066801E03500F6682C
:10038000002E60D0307D002808D1DFF8B03BE2229B
:10039000DFF8C81BDFF8A80B01F046FF307D0A2804
:1003A00008D1DFF8983BE322DFF8B41BDFF8900BAD
:1003B00001F03AFF307D012808D1DFF8803BE422CC
:1003C000DFF8A01BDFF8780B01F02EFF308BDFF891
:1003D000A415096809888842D0D1F08ADFF89415FD
:1003E000096849888842C9D17068DFF88C150969A5
:1003F0008842C3D13068DFF8801549698842BDD191
:10040000F068B04208D1DFF8343BEC22DFF8581B2B
:10041000DFF82C0B01F008FF002D08D0F068E86031
:10042000DFF8340B0068F060DFF82C0B0660F06832
:10043000B04208D1DFF8043BF422DFF8301BDFF8CC
:10044000000B01F0F1FE002E61D1DFF8240B0668ED
:1004500000E0F668002E2CD0307D0A2808D0DFF8A6
:10046000DC3AFE22DFF80C1BDFF8D40A01F0DCFED8
:10047000308BDFF80015096809888842E9D1F08AD5
:10048000DFF8F014096849888842E2D17068DFF823
:10049000E81409698842DCD13068DFF8DC14496966
:1004A0008842D6D1300000F019FA200001F058FC43
:1004B00076E60025DFF8C00A006801E00500C068A4
:1004C000002811D0C18ADFF8AC241268528891420A
:1004D000F4D10168DFF8A0245269914204D00028C9
:1004E00002D001680029E9D1002810D0002D08D0E1
:1004F000C168E960DFF8801A0968C160DFF8781A1E
:10050000086000F055F9200001F02AFC48E6002EB2
:1005100000F009810020DFF8641A08602089DFF804
:100520005C1A0881DFF8540A4460DFF84804006868
:10053000DFF8481AC8600020DFF8441A086000207D
:10054000DFF8401A08700020DFF83C1A0880DFF856
:10055000000A0078000703D5607B50F0010060734B
:10056000306F002814D0300002F008FB10F10D0F9E
:1005700007D0306F00280BD0DFF8D809008800289A
:1005800006D0708D002802D1300002F0E3FEB3E007
:10059000DFF8F8090660300000F0FAF940B210F117
:1005A0000D0F00F0A980DFF8DC090078000713D5F3
:1005B000D6F88800002805D07FF00D013069D6F804
:1005C000882090473100DFF8900902F03DFC3100AF
:1005D000012003F0BBFA8FE00020DFF8AC090088AF
:1005E000002814D0DFF8A0090288B06F002805D0D9
:1005F00092B231003069B36F984700E0002040B2FA
:1006000010F10D0F78D00020DFF87C190880300041
:1006100000F0ADF800286FD1DFF864090068002809
:1006200037D0306F002809D0DFF810394FF4D2727C
:10063000DFF85C19DFF8080901F0F6FDB07EC006AE
:1006400008D5DFF83C09006801F08AFB300001F0B2
:10065000C7FF51E0F06F002808D00023DFF8200921
:10066000026831003069F46FA04707E00023DFF82B
:10067000100902683100002002F0DBFA40B210F1EC
:100680000D0F39D040B2002803D0DFF8F40800681D
:100690003067DFF8F0080078800608D5306F002852
:1006A0000FD0306F407B50F02000316F4873002036
:1006B000DFF8D8180860300000F059F8002818D08A
:1006C0001AE0308D40F66831884202D0308D401CEF
:1006D0003085F06F002806D00023002231003069F9
:1006E000F46FA04700E0002040B210F10D0FDED102
:1006F00002E0300002F06EFE0020DFF89018086083
:100700000020DFF87C180860DFF8700840680028D7
:100710002CD0DFF86808406801F022FB0020DFF8E9
:100720005C18486022E093480068808901F05AFD17
:10073000400718D48F480068008801908D480068F1
:1007400040880090DFF84C38DFF84C28DFF8F807D5
:100750000068DFF80018098810FA81F1DFF8EC076B
:10076000006802F0F9FF200001F0FAFA18E510B570
:100770000400DFF810080078C00617D5A07EC00678
:1007800009D4D4F88800002805D07FF00E01206934
:10079000D4F8882090472100DFF8BC0702F054FB12
:1007A0002100012003F0D2F9012000E0002010BD5B
:1007B00030B583B00400DFF898070078400700F1F7
:1007C0008C80DFF88C070078C00619D5694800686E
:1007D000008801906748006840880090DFF8B437CF
:1007E000DFF8B427DFF860070068DFF868170988CA
:1007F00010FA81F1DFF85407006802F0ADFF6CE0F9
:10080000DFF84C070078800767D5607D02F09CFA1E
:100810000500002D0CD1A069002806D05FF0FF3242
:1008200000212069A369984701E07FF00F0054E0A0
:10083000514840692860504800696860E08AE88251
:100840004C4800680088288303202875DFF8F806E4
:100850000068401C6862686AE862280002F038FBA1
:100860006865E8646864A865DFF8DC060068401E17
:100870002865206928616C67207A10F00C002872C6
:10088000DFF8D4060068E860DFF8CC06056003F006
:1008900096F90120DFF804170870280000F050FFD7
:1008A00034480068C089A5F85C00B5F85C00A5F87C
:1008B0005E00291D688E02F019FB6886122128004F
:1008C00002F07FFC40B2002804D00021280001F093
:1008D00008FE02E0280002F07DFD37BD00B583B0C0
:1008E000DFF86C160978490742D4DFF864160978F6
:1008F000890729D5DFF850160968426A891A002944
:100900002BD4DFF844160968426A891A028D891AC5
:10091000012922DA1748006800880190154800680C
:1009200040880090DFF86C36DFF86C26DFF8180698
:100930000068DFF82016098810FA81F1DFF80C064C
:10094000006802F009FF13E0DFF804160978C90710
:1009500003D5DFF84C1609680162DFF8F81509883D
:10096000002905D0817E51F00201817602F032FD2E
:1009700007BD0000ACFC00201CFB0020E8FC0020B0
:10098000B0FC0020EAFC0020F434010868360108BD
:1009900030B583B0040000210020DFF8B4050078F2
:1009A000400747D5207D022807D1DFF8A005006861
:1009B000E26C90421DD101211BE0DFF88C0500683C
:1009C000626A904201D1012113E0DFF87C050068E2
:1009D000626A801A00280CD4DFF86C050068626A2D
:1009E000801A228D801A012803DAA07E50F00200BE
:1009F000A076C9B200291BD0207D002809D1DFF8DC
:100A00003C3540F2E722DFF89C15DFF8340501F0B1
:100A10000BFCDFF87005007850F00800DFF8641573
:100A20000870A07E10F0FE00A0767FF00D0084E23A
:100A3000002082E2DFF81805007880070BD5207DC2
:100A4000022808D0207D032805D0A07E50F00200A7
:100A5000A076002071E2A07EC00603D4DFF8400536
:100A600000682062002084F89200200000F068FEF8
:100A7000207D022814D0C0F05F82042800F07C8121
:100A8000C0F0D980062800F0D981C0F08381082801
:100A900000F00682C0F07081092800F037824BE236
:100AA000DFF8AC04007810F01200122840F09980B2
:100AB000DFF898040068616C491C884240F091801E
:100AC000DFF884040068401C6062606AE062DFF85E
:100AD0007C0400686064DFF8F80C0068C089A4F842
:100AE0005C00B4F85C00A4F85E00DFF85C04006809
:100AF000401E206504202075211D608E02F0F6F94D
:100B00006086608E400041F21D11884202D3608EE3
:100B1000400001E041F21C10618E8900814203D245
:100B2000608E80B280000BE0608E400041F21D11AB
:100B3000884203D3608E80B2400001E041F21C1075
:100B4000A4F84800B4F86200002809D1DFF8EC33BB
:100B500040F21A32DFF8E01BDFF8E40301F064FB37
:100B6000B4F86200401EA4F86200E56E002D0FD1BB
:100B7000A56E002D09D1DFF8C43340F22232DFF830
:100B8000BC1BDFF8BC0301F04FFB2868A06601E046
:100B90002868E066280002F03DF8E06E002803D1E6
:100BA0005FF0FF30208604E000202086002084F8DB
:100BB0004200D4F88000002806D0002221002069DD
:100BC000D4F88030984700E0002040B210F10D0FBB
:100BD00002D17FF00C00B0E1A07E50F00200A076C0
:100BE00028E0DFF86C030078C00623D5DFF8E00BBF
:100BF000006800880190DFF8D80B006840880090FA
:100C0000DFF89033DFF89023DFF83C030068DFF86B
:100C10004413098810FA81F1DFF83003006802F00C
:100C20009BFD94F84200062804DA0020208620006C
:100C300002F0F4FD80E1DFF818030078C00640F10F
:100C40008D80C2480068616C401A401E00286ED436
:100C5000BE480068E16C401A012868DA042020755B
:100C6000606F00280BD0606F8069002807D1B34BFC
:100C700040F25132DFF86C1BB14801F0D5FA606FD9
:100C8000002802D17FF005000CE0606F8069002829
:100C900006D0002221002069636F9B69984701E01C
:100CA0007FF00F0040B2002809D040B210F10D0FC4
:100CB00002D0200001F094FC7FF00C003DE1200008
:100CC00000F072F9B0480088002804D0AE480088CF
:100CD000401EAD490880608E400041F21D118842DF
:100CE00002D3608E400001E041F21C10618E890049
:100CF000814203D2608E80B280000BE0608E4000A3
:100D000041F21D11884203D3608E80B2400001E0A1
:100D100041F21C10A4F848009A48007880062AD5B1
:100D2000A07E50F00200A0760720207523E0DFF8B7
:100D3000A00A006800880190DFF8940A00684088E3
:100D40000090944B944A804800688249098810FAC0
:100D500081F17E48006802F0FFFC0CE07C480078DE
:100D6000800708D578480068616A491E884202D128
:100D7000200002F071FDDFE0200000F015F981484D
:100D80000078800605D5A07E50F00200A0760720EE
:100D90002075D1E0200000F007F97A48007880063D
:100DA0003DD56B480078C00632D568480068E16CD4
:100DB00088422DD1A06E00282AD1A07E50F00200DA
:100DC000A076200002F01CF863480068A04205D11C
:100DD00061480068C068604908600AE05E480068D1
:100DE00000E0C068002804D0C168A142F9D1E168E0
:100DF000C1600020E0600120684908700A20207569
:100E00005B480068E0605A48046002F0D8FE14E0D5
:100E1000A07E50F00200A076082020750DE04C481E
:100E20000078C00609D549480068E16C884204D1C1
:100E3000A06E002801D1062020757DE0200000F082
:100E4000B3F850480078800629D5A07E50F0020003
:100E5000A076200001F0D4FF3F480068A04205D1F1
:100E60003D480068C0683C4908600AE03A480068AC
:100E700000E0C068002804D0C168A142F9D1E1684F
:100E8000C1600020E0600120444908700A202075FC
:100E900037480068E0603648046002F090FE4BE09E
:100EA000200000F081F82A480078C0062DD5274898
:100EB0000068E16C884228D1A06E002825D120006E
:100EC00001F09EFF24480068A04205D12248006836
:100ED000C068214908600AE01F48006800E0C06857
:100EE000002804D0C168A142F9D1E168C1600020A6
:100EF000E0600120294908700A2020751C4800681C
:100F0000E0601B48046002F05AFE15E0200000F08B
:100F10004BF80F480078C0060DD50C480068E16C0E
:100F2000884208D1A06E002805D11648007850F0FC
:100F3000100014490870FFE700203EBD7019010839
:100F4000D4270108242E0108B4FC0020B8FC00209E
:100F500003FD0020F0FC0020A4FC0020FC27010879
:100F6000B423010824280108E02301080C24010807
:100F7000A8FC00206C210108A0FC002098FB0020A8
:100F8000BCFC002004FD0020EEFC0020C0FC002082
:100F9000DC3001082CFB002030FB002000FD00208D
:100FA00098FC0020442E010870B504000025207D27
:100FB000042809DADFF830384FF48162DFF82C18A2
:100FC000DFF82C0801F030F9DFF828080078C006B7
:100FD00040F10582B4F85C00616D11FA80F0216D7A
:100FE000DFF814281268891A00291AD4216DDFF855
:100FF00008281268914206D1616DDFF80028126856
:10100000891A00290DD4616DDFF8F027126891422A
:1010100035D1B4F85C10DFF8B8271268D289914254
:101020002DD2DFF8AC170968C989A4F85C10B4F8B0
:101030005E10B4F85C20914203D2B4F85C10A4F8BE
:101040005E10DFF8B41709682165DFF8B01709688A
:101050006165B4F85C1000290AD194F89110002958
:101060000DD1002184F89010012184F8911006E040
:1010700094F89110002902D0002184F89110DFF833
:101080007C170968626C891A012945DADFF8701744
:101090000988002939D1616DB4F85C2011FA82F118
:1010A000814232D1B4F9300000282ED4606CDFF8D0
:1010B0004C170968884228D1012594F8430094F818
:1010C0004310491CC9B2884204D294F84300401C22
:1010D00084F8430094F8430004280FDBB4F8480078
:1010E000B4F84810628E511889B288420DD2B4F813
:1010F0004800618E0818A4F8480006E094F8430000
:10110000032802D1200002F0D8FB002D40F00C8112
:10111000002084F8430007E1DFF8E0060068616C16
:10112000401A401E002800F1B880DFF8D0060068A1
:10113000E16C401A012880F2B080A07E400707D5FC
:10114000A07E10F0FB00A076B4F84A00A4F8480096
:10115000002084F84200B4F93C00C010B4F93E10FD
:101160004018A4F84000002084F84300DFF88C0603
:1011700000686064207D042864DBB4F84800B4F89B
:101180004A1088420FD2B4F84800B4F84810628E72
:10119000511889B2884255D2B4F84800618E0818B7
:1011A000A4F848004EE0B4F84800618E628E5143C6
:1011B000B4F8482091FBF2F10818B4F8481080B256
:1011C00081423FD2A4F848003CE0E56EE06E006842
:1011D000E066686800F03EFEB4F8621080B28142BA
:1011E00009D2DFF8043640F29E42DFF81816DFF825
:1011F000000601F019F8686800F02CFEB4F86210DF
:10120000081AA4F86200DFF8000600882989081887
:10121000DFF8F4150880280001F0FCFCB4F8620047
:1012200000280FD0E06E00280CD1A06E002809D154
:10123000DFF8B43540F2A742DFF8D015DFF8B0058B
:1012400000F0F2FFE06E00281BD0E06EC168486835
:1012500000F0CFFF0500E06EC068808900F0C2FF9B
:101260000321084201D0012000E00020E16E09893D
:1012700015FA81F14018DFF884150968401A012831
:10128000A3DBE06E002803D15FF0FF30208601E091
:10129000002020860020E07646E0200002F05AF888
:1012A00042E0A56EA06E0068A066A06E002802D184
:1012B0000020A4F86400686800F0CCFDB4F8621067
:1012C00080B2814209D2DFF8203540F2D542DFF802
:1012D0003415DFF81C0500F0A7FF686800F0BAFDC0
:1012E000B4F86210081AA4F86200DFF81C05008840
:1012F00029890818DFF810150880280001F08AFCF9
:10130000B4F8620000280FD0E06E00280CD1A06E67
:10131000002809D1DFF8D03440F2DD42DFF8EC14C8
:10132000DFF8CC0400F080FFA06E002821D0A06E72
:10133000C168486800F05DFF0500A06EC068808944
:1013400000F050FF0321084201D0012000E00020FE
:10135000DFF8A8140968491BA26E1289891A081AB5
:10136000002806D4DFF894040068E16C401A0128D4
:1013700097DBB4F86000DFF8901409880818A4F827
:101380006000606B00282AD0A06BDFF87014096839
:10139000401A002823D5DFF878040068616B401AF2
:1013A00000B2B4F93C10B0EBE100A18F4118A18765
:1013B00000B2002801D500B2404200B2B4F93E109C
:1013C000B0EBA100E18F4018E087B4F93C00C010F9
:1013D000B4F93E104018A4F8400000206063DFF824
:1013E00020040088002800F06F81207D072880F20B
:1013F0006B81606ADFF800140968401A401E0028FB
:1014000000F18D80606ADFF8F0130968401ADFF898
:10141000F0130988401A401C012880F28080DFF810
:10142000F4034568606ADFF8D0130968461ADFF8EC
:10143000E4034068002809D1DFF8AC3340F23C52A5
:10144000DFF8D413DFF8A80300F0EEFE47F6FF70D4
:10145000864209DBDFF8903340F23D52DFF8BC13DF
:10146000DFF88C0300F0E0FEDFF8A8034068408955
:10147000B04230DADFF89C0340680089B04209DAF4
:10148000DFF8643340F23F52DFF89413DFF8600373
:1014900000F0CAFEDFF87C0340680089801B05E08D
:1014A0006989761A2881002169812D686989B1428C
:1014B000F6DB714209B2280000F046FC00281BD080
:1014C000DFF8243340F24C52DFF85813DFF82003E2
:1014D00000F0AAFE10E0714209B2DFF8380340685C
:1014E00000F032FC002807D0BF4B40F25152DFF829
:1014F0003413BF4800F098FEDFF818030089616AD2
:10150000BD4A1268891A401AC2490881606ABA49FC
:101510000860C048C068B8490968416009E0B64839
:101520000068616A401A002803D5A07E50F00200CE
:10153000A076B1480068616A401A002800F1C080B6
:10154000AD480068616A401A218D401A401C01288C
:1015500080F2B680606AA8490968884240F0AC8091
:10156000AC48C068808900F03DFE0321084201D0EC
:10157000012000E00020A74909894018A0490880FF
:10158000208D9F490988884251D2A248C06880892D
:1015900000F028FEC00712D59E48C068808900F080
:1015A00021FE10F03E0000F01DFE9A49C9688989AD
:1015B0004CF2FF02114008439649C9688881208D8A
:1015C000944908819348C068808900F00BFE800729
:1015D00004D590480089401E8E4908818D480189B4
:1015E0008C48406800F0C0FA8A48C068808900F0E2
:1015F000F9FD0321084201D0012000E000208549C7
:10160000098940187E4908807B4800687C49098820
:1016100010FA81F0616A228D11FA82F1884206D0B7
:10162000714B40F27F528049714800F0FDFD7248D5
:1016300000687349098810FA81F06062208D704952
:101640000988884206D2684B40F2B9527749684807
:1016500000F0EAFD208D6A490988401A20852000A3
:1016600000F0C3FF6B4840680089002806D0694835
:1016700040686F4908600020664948606548C06856
:10168000808900F0AFFDC00705D56A48007850F0AA
:10169000200068490870A07EC00708D5A07E10F021
:1016A000FE00A076A07E50F00200A07603E0A07EAF
:1016B00050F00100A0761AE0200001F04BFE16E089
:1016C000200001F047FE12E04B480068616A401AB2
:1016D000002808D448480068616A401A218D401AE1
:1016E000401C012803DBA07E50F00200A07670BDF4
:1016F00051480068002805D05048008850490988A2
:1017000088420AD23248006814304C4909884A1C81
:101710004A4B1A8089B2085C0DE048480088484965
:101720000988401A45490988491C444A11804249A0
:101730000968C0B2405C704790320108F833010874
:1017400038B504003F48008800283FD000203B49BE
:101750000880FFE7394800883A490988884235D22D
:10176000FFF7C6FFC0B2002803D0022802D0F1D391
:101770001FE02BE0FFF7BCFF042806D131480088AA
:101780002E490988891C884200DA1FE0FFF7B0FF64
:101790000502FFF7ADFF0543ADB240F2B5508542FB
:1017A00002DAADB2002D02D140F2B455FFE76586F2
:1017B000D0E7FFF79DFFC0B2022807DB1F49098869
:1017C000C0B2801E40181D490880C3E731BD00002B
:1017D000ACFC00201748007850F010001549087044
:1017E00070470000642E010870190108F8300108E4
:1017F000D427010803FD0020B4FC0020B8FC002021
:10180000F0FC00204C280108EEFC0020842E01088A
:1018100098FC002098FB00200435010814350108CD
:10182000243501080C340108B01D0108A42E01085C
:10183000BCFC002004FD0020B0FC0020ECFC0020DB
:10184000EAFC0020E8FC00202DE9F0410E00140025
:10185000C0B2002806D002281BD018D304281CD000
:1018600019D31CE03627E4B2002C00F0E180022CF2
:1018700000F01A81C0F01881032C40F026810C2062
:1018800002F035F90500002D15D10020CEE0222709
:10189000E9E70E27E7E70027E5E70027E3E7DFF8BA
:1018A00074384FF48B72DFF87018DFF8700800F0AE
:1018B000BBFC0020BAE02C7300202860BFB278196E
:1018C0001030C01C80088000686068680421B0FB8C
:1018D000F1F202FB1102002A09D0DFF8383840F299
:1018E0002912DFF83C18DFF8340800F09DFC2E8147
:1018F000B6B240F2F450BFB2F91C89088900401A10
:10190000864201D2300007E040F2F450BFB2F91C29
:101910004FF6FC721140401A688105F20460696854
:101920006A895118884209D2DFF8E8374FF4987273
:10193000DFF8F017DFF8E40700F076FC40F2F4502F
:10194000BFB2F91C89088900401A002809D1DFF8C4
:10195000C4374FF49972DFF8D017DFF8C00700F0F2
:1019600063FC0120E881A846B6B26889361A2DE0EA
:1019700040F2F450788117F1100078607868042103
:10198000B0FBF1F202FB1102002A09D0DFF8843724
:101990004FF4A972DFF89417DFF8800700F044FCD9
:1019A00005F2046069686A895118884209D2DFF833
:1019B000643740F25512DFF86C17DFF8600700F06B
:1019C00033FC0120F8817889361AB846012E28DBCD
:1019D0000C2002F08CF80700002F04D1280000F042
:1019E000BFF9002022E03C730020787300203860AB
:1019F000C8F800704FF6FF70864209DBDFF8143735
:101A00004FF4A672DFF82817DFF8100700F00CFC7F
:101A10003E81300080B240F2F4518842A8D23000BA
:101A2000A8E70120E881002068732800BDE8F08164
:101A300017F113004FF6FC710840B6B2F11C4FF6D7
:101A4000FC721140081880B2B6B2F11C89088900F6
:101A5000884201D20020E9E780B202F084FB050051
:101A6000002D01D10020E1E7BFB278191030C01C71
:101A70008008800068602E812889688100202860A5
:101A80002C7368680421B0FBF1F202FB1102002AFA
:101A900009D0DFF8803640F27712DFF89816DFF8C9
:101AA0007C0600F0C1FBBCE70B2002F020F805002B
:101AB000002D01D10020B9E7002068602E8128891F
:101AC0006881002028602C73ABE7DFF848364FF4BC
:101AD000C672DFF86416DFF8440600F0A5FB0020AC
:101AE000A4E738B5C0B2002806D0022812D00FD320
:101AF000042813D010D313E036240598A4B2E51CB3
:101B0000AD08AD0015FA81F5A84215D200202AE0F3
:101B10002224F2E70E24F0E70024EEE70024ECE7AD
:101B2000DFF8F03540F2C512DFF81016DFF8EC05EB
:101B300000F07AFB002016E00020186004980028CE
:101B400006D0A4B2E41CA408A4002018586001E048
:101B500000205860022058731981188958811A731F
:101B60000120D881180032BD70B504000D00002C92
:101B700009D1DFF8A03540F2F312DFF8C415DFF821
:101B80009C0500F051FB207B032812D0207B01280C
:101B90000FD0207B00280CD0207B022809D0DFF852
:101BA000743540F2F712DFF89C15DFF8700500F08D
:101BB0003BFB2089ADB2854250D2ADB220892E1AAE
:101BC0001FE060892D1A4FF6FF70864209DBDFF8AF
:101BD000443540F20B22DFF87015DFF8400500F0C5
:101BE00023FB2089301820812468002C09D1DFF8DC
:101BF000243540F20F22DFF85415DFF8200500F0FD
:101C000013FB6089ADB2A842DBD3207B00281AD138
:101C10006089ADB2854216D0607B800713D46068BE
:101C2000001B291889B2200002F0F5F90400002CED
:101C300009D1DFF8E03440F21D22DFF81415DFF897
:101C4000DC0400F0F1FA65816089208120680028B9
:101C500002D0206800F084F80020206070BD70B5CC
:101C600004000D001600002C09D1DFF8A83440F262
:101C70003F22DFF8E014DFF8A40400F0D5FA2DB21B
:101C8000002D01D0002C01D1002043E02DB2002D09
:101C900012D52DB26A42608992B290420BD2DFF81F
:101CA000743440F24722DFF8B014DFF8700400F01B
:101CB000BBFA01202EE001E02A0092B2207B61688D
:101CC00080B2002802D080B203280BD160682DB208
:101CD000401B6060606814F11002904213D2616092
:101CE000012017E080B2022802D080B201281FD163
:101CF0002DB2002D0FD5608992B290420BD360684F
:101D00002DB2401B606060892818608120892818E6
:101D10002081002070BD2DB2012D07DBF6B2002E10
:101D200004D060682DB2401B6060ECE70120F1E751
:101D3000DFF8E03340F27722DFF82014DFF8DC032D
:101D400000F072FA0120E5E780B5002209B2FFF742
:101D500086FF02BD80B5012209B2FFF780FF02BDF8
:101D6000F8B50400002C0DD1002C09D1DFF8A43304
:101D700040F2D222DFF8DC13DFF8A00300F054FABF
:101D8000002066E0207B002812D0207B01280FD0A5
:101D9000207B02280CD0207B032809D0DFF8743385
:101DA00040F2DE22DFF8B813DFF8700300F03CFAEF
:101DB000002504E0200002F0DCF86D1C3400002C4B
:101DC00045D002F03BFB0700E089002809D1DFF88D
:101DD000443340F2EB22DFF88C13DFF8400300F0CD
:101DE00023FAE089401EE081E689380002F02FFBEB
:101DF000B6B2002E29D12668207B617B890711D5D8
:101E000027003869002809D1DFF8083340F2F922A9
:101E1000DFF85413DFF8040300F006FA20003969F4
:101E20008847CAE780B2032804D121000C2001F0C2
:101E30008DFEC2E780B2012802D080B20228B9D15B
:101E400021000B2001F082FEB7E70024B7E728004D
:101E5000C0B2F2BD002101E0491C00680028FBD19E
:101E6000080080B2704710B50400002C13D002F0B7
:101E7000E5FAE189491CE18102F0E9FAE0890028EC
:101E800009D1DFF8903240F23932DFF8E012DFF8A2
:101E90008C0200F0C9F910BD38B505000C00002D0A
:101EA00001D0002C0AD1DFF86C3240F24D32DFF85D
:101EB000C012DFF8680200F0B7F928E004E02889D2
:101EC0002189081828812D6828680028F7D12889D9
:101ED0006989884209D0DFF83C3240F25532DFF898
:101EE0009412DFF8380200F09FF92868002809D022
:101EF000DFF8203240F25632DFF87C12DFF81C02A5
:101F000000F092F928892189081828812C6031BDB8
:101F100010B50C002100FFF7BFFF2000FFF7A3FF63
:101F200010BD2DE9F84304000D0000260027002C09
:101F300005D0002D03D02089298988420CD2DFF8F2
:101F4000D43140F2BD32DFF83412DFF8D00100F0B6
:101F50006BF97FF00F007FE06089B6B2801B698962
:101F6000BFB2C91B884203DB6889B0EB070802E0F7
:101F70006089B0EB06081FFA88F86868BFB23918A4
:101F80006068B6B216EB00094246484602F06EFAA7
:101F900018EB060618EB07076089B6B2B04209D203
:101FA000DFF8703140F2CD32DFF8D411DFF86C0188
:101FB00000F03AF96889BFB2B84207D2554B40F2F7
:101FC000CE32DFF8C011554800F02EF96889BFB253
:101FD000874201D300272D686089B6B2864210D1AE
:101FE00000262468002C0CD1002D0AD0494B4FF458
:101FF0007672DFF89411494800F016F97FF00F006F
:102000002AE0002D11D06889298988420DD12868DD
:1020100000280AD03F4B40F2DE32DFF870113F4813
:1020200000F002F97FF0050016E0002C10D0608966
:10203000218988420CD12068002809D0354B40F214
:10204000E3325249354800F0EFF87FF0050003E035
:10205000002D7FF481AF0020BDE8F2832DE9F04729
:1020600080460C0015000027B8F1000F08D1294B5D
:1020700040F2FE324649294800F0D6F8002047E0F9
:10208000002C08D1234B40F2FF324249234800F094
:10209000CBF800203CE00026B8F1000F01D0002C66
:1020A00001D1002034E01FE0B8F80A00B0EB0309CA
:1020B000ADB21FFA89F94D4500D2A9461FFA89F938
:1020C000D8F804009BB21918B6B216EB040A4A46B7
:1020D000504602F0CBF919EB070719EB0606B5EBF2
:1020E00009050023D8F80080ADB2002D0ED0B8F15C
:1020F000000F0BD09BB2002BD6D0B8F80A009BB2D1
:102100008342D1D3B8F80A001B1AEBE7380080B23B
:10211000BDE8F087DC1B0108FC2F01080C27010833
:102120004C200108F01E0108241F01087C20010832
:10213000BC330108AC22010818300108242B010827
:10214000E831010834300108D033010800320108B9
:102150005030010850360108E42D0108843401088C
:102160001832010830320108482B0108E433010815
:10217000781D0108AC20010894340108DC20010816
:10218000483201086C300108A4340108D822010843
:10219000042E01086C2B010810B40200C343002B6D
:1021A00001D0002801D101201AE091F833309B07BB
:1021B00001D4002014E04B68984201D100200FE0C8
:1021C0008B681A404B688C6823409A4207D18A6812
:1021D00090438968C943884201D1012000E0002072
:1021E00010BC7047010089B2090A51EA002080B290
:1021F000704710F47F41090251EA0061020A12F4AB
:102200007F42114351EA1060704703681AB95A1EA1
:10221000026008467047197800290FBF4FF0FF3061
:10222000591C0160187870470EB400B582B003A93C
:10223000009102466B460121034878440A3002F0BF
:1022400055F906BC5DF810FBA9100100704780B578
:1022500000F042FCDFF80C090078401CDFF804199C
:102260000870DFF800090078C00701D500F036FAE1
:1022700001BD05E0426F8A4201D100224267C06879
:102280000028F7D1704738B50400002C08D1DFF8DA
:102290004034C022DFF83C14DFF8CC08FFF7C4FF5D
:1022A000207D012808D0DFF82834C122DFF8281467
:1022B000DFF8B408FFF7B8FF012508E02100DFF8D8
:1022C000AC0850F825000068FFF7D3FF6D1C042D03
:1022D000F4D331BD1CB50400C9B2002963D0207D00
:1022E000042802D0207D07285DD1206F002804D16A
:1022F000208D40F66831884255D0A07EC00609D4B2
:10230000DFF8CC3340F20F12DFF8C017DFF85808BF
:10231000FFF78AFF208B0190E08A0090231D2200A6
:10232000616AE06C01F018FA200000F069FDDFF846
:10233000A0070068A04207D1DFF894070068C068D2
:10234000DFF88C1708600BE0DFF88407006800E016
:10235000C068002804D0C168A142F9D1E168C16019
:102360000020E0600120DFF808180870207D0428B4
:102370000BD10A202075DFF85C070068E060DFF809
:102380005407046001F01BFC0BE0DFF8D407006881
:10239000A04202D1FFF71EFA03E02100012001F064
:1023A000D5FB002029E0207D002803D0022832D070
:1023B00024D33EE0E08A00281AD0DFF8B80700688E
:1023C000A04207D1DFF8AC070068C068DFF8A417A7
:1023D00008600BE0DFF89C07006800E0C068002898
:1023E00004D0C168A142F9D1E168C1600020E06079
:1023F0002100012001F0AAFB002016BD2000FFF7FC
:1024000042FF2100DFF8700700F01EFD21000220CE
:1024100001F09CFBF0E72100DFF8B40600F014FDAA
:102420000120DFF84C1708702100012001F08EFB1D
:10243000E2E7200000F001F8DFE738B50400002CE7
:1024400009D1DFF88C3240F24D12DFF88812DFF844
:102450001807FFF7E9FE207D032804D0042814D0D4
:1024600007281CD025E0200000F017FE05006DB203
:10247000002D01D1052020756DB2002D1BD120004B
:1024800000F0A8FF280040B232BD200000F005FE99
:1024900005006DB2002D01D105202075ECE720006C
:1024A00000F0FBFD05006DB2002D01D10920207563
:1024B000E2E70020E8E76DB215F1010FE2D1A07E5E
:1024C00050F00800A0760020DEE780B5017D0129EC
:1024D00003D0817E51F0100181760121FFF7FAFED1
:1024E00002BD2DE9F04F83B004008B46207D01280A
:1024F00009D1DFF8DC314FF4F072DFF84418DFF86F
:102500006806FFF791FE207D0A2809D12100DFF837
:10251000C40500F099FC2100012001F017FB5DE0EB
:1025200000275FF00008D4F84C90D4F824A0D4F829
:1025300088502669207D00281ED1E08A002827D0F7
:10254000DFF830060068A04207D1DFF828060068EF
:10255000C068DFF8201608600BE0DFF81806006896
:1025600000E0C068002804D0C168A142F9D1E16848
:10257000C1600020E0600BE05F46B4F816802100E7
:10258000DFF84C0500F060FC0120DFF8E41508706E
:10259000E06E002802D0E06E00F033FBA06E002851
:1025A00002D0A06E00F02DFB002F0BD0208B0190ED
:1025B0001FFA88F8CDF80080231D220051464846B6
:1025C00001F0CAF8207D2100012001F0BFFA2800A7
:1025D000002803D07FF00C013000A847BDE8F78F3A
:1025E00080B50121FFF77DFF01BD38B50400606AA9
:1025F000218D10FA81F0618E40F2B552914202DBDA
:1026000040F2B45100E0618EE26A821A511A002948
:1026100004D4218D6185E16A401A18E0606AE16A9C
:10262000401A012802DB002060850FE0E06A616A41
:10263000451AB5F5803F08D3254B4FF44272DFF8B9
:10264000A418DFF80007FFF7EFFD6585002032BD15
:1026500038B504000D00207D012808D11C4B4FF433
:102660004872DFF88418DFF8DC06FFF7DDFD208D07
:1026700028182085208D40F66931884203DB40F61A
:102680006830208515E0208D002812D1207D072894
:1026900002D0207D092803D140F66830208508E06B
:1026A0000B4B40F22D32DFF8E018DFF89806FFF709
:1026B000BBFD2000FFF799FF40F2DA21884206DBDC
:1026C000A07E50F00200A076200000F083FE31BD15
:1026D000181C01085C36010860320108F0B583B0AF
:1026E0000020DFF8A8080068401CDFF8A018086088
:1026F000DFF89C080078401CDFF89418087036E07A
:10270000DFF8CC030068A04209D0DFF8883840F237
:102710008D42DFF88418DFF82C06FFF785FDE068AE
:10272000DFF8AC130860F6B2002E09D0208B0190C0
:10273000E08A0090231D2200616AE06C01F00CF831
:102740002669207D2100E468012001F0FFF90020C6
:10275000DFF81C1408703800002803D07FF00C014B
:102760003000B847DFF808040078002804D00025BE
:10277000D748046800E0E468002C00F05A81207D0E
:10278000002809D1DFF80C384FF47C72DFF80C1800
:10279000DFF8B005FFF748FD207D012809D1DFF8FB
:1027A000F43740F2F132DFF8F817DFF89805FFF759
:1027B0003BFD207D0A2809D1DFF8D83740F2F232FC
:1027C000DFF8E017DFF87C05FFF72EFD607FDFF80C
:1027D000C01709788842CED0DFF8B4070078607758
:1027E00000270026207D022805D194F84200062803
:1027F00001DB7F1C7CE094F842000C2801DB7F1C8D
:1028000076E094F89100002827D0DFF89C0794F830
:102810009110081810F8010C94F89010C0B2814281
:1028200004D294F89010491C84F8901094F89010F9
:10283000C0B281425CD3200001F0A1F8002857D13A
:10284000002084F8900094F89100072850D294F862
:102850009100401C84F891004AE0B4F9300000284F
:1028600002D4208E401C2086E06E002840D0B4F9AF
:102870003000B4F9401088423ADB207D022815D0A0
:1028800094F842000C2802D294F8420000E00C2098
:10289000B4F93C10C910B4F93E208918DFF80C27B0
:1028A000C0B2805611FA00F0A4F840000020208643
:1028B000B4F84800B4F85C10884202D2B4F848007A
:1028C00001E0B4F85C0080B24008A4F84A00B4F813
:1028D0004A00618E490089B2884203D2608E40006E
:1028E000A4F84A00608EA4F84800200000F096FF8B
:1028F000207D06280AD1A07EC00607D5DFF88C0609
:102900000068216A401A292800D37F1C207A00071A
:1029100036D5207D042802D0207D072830D1D4F878
:102920008C00DFF88C1608184FF4FA71B0FBF1F048
:10293000DFF858160968226A891A884202D27F1C79
:10294000761C1DE0D4F88C0094F89210DFF8642611
:1029500002FB01004FF4FA71B0FBF1F0DFF82C1626
:102960000968226A891A88420AD2200000F0DBFF37
:1029700040B2002804D194F89200401C84F89200E0
:10298000207D032807D1DFF804060068216A401A79
:10299000292800D37F1C207D092807D1DFF8EC050A
:1029A0000068216A401AF12800D37F1CFFB2002F73
:1029B00018D0D4F88870200000F022FA002D3FF4DF
:1029C0009FAE43480068844209D1DFF8C83540F221
:1029D0008942DFF8E415DFF86C03FFF725FCE068B7
:1029E000E860A0E62500E468E87E401CE876E87E22
:1029F000297F8842FFF4C0AE0020E87600205C49C1
:102A00000870D5F88400002805D029002869D5F879
:102A10008420904700E000205549097800297FF480
:102A2000A6AE40B200287FF4A7AE280000F0D2FC8A
:102A3000A2E600252748046814E026480068A04262
:102A400008D0DFF8503540F2CF42DFF87015BD48AE
:102A5000FFF7EAFBE0681F4908602100E4680120F5
:102A600001F074F8002C2FD0207D0A2808D0DFF860
:102A7000243540F2BD42DFF84815B248FFF7D4FBD9
:102A80000027DFF808050068216A401AF12800D302
:102A90007F1CFFB2002F14D0200000F0B1F9002DF0
:102AA000CBD00C480068844208D1DFF8E83440F20B
:102AB000CB42DFF81015A348FFF7B6FBE068E860EB
:102AC000CBE72500E468CDE7F7BD000088300108BA
:102AD000A4FC0020A8FC002038B5DFF8B40400787E
:102AE000401CDFF8AC14087029E0DFF8A40400787B
:102AF0006077A07EC0070AD5A07E50F00200A076C5
:102B0000200000F067FCA07E10F0FC00A076A07E04
:102B1000000706D5A07E10F0F700A0762000FFF792
:102B20008CFCE568206F00280DD00020104908704B
:102B3000200000F023F80E480078002803D0DFF8CA
:102B40008804046800E02C00002C07D0607FDFF8C8
:102B5000401409788842C8D1E468F5E731BD000027
:102B6000C0FC002001FD002034270108E4340108E6
:102B700000FD00209CFC0020A0FC0020F8B5040013
:102B8000206F457B266F00202067E06F002806D06D
:102B90000023320021002069E76FB84705E00023D9
:102BA00032002100002000F044F840B200281BD180
:102BB000A80624D5208D40F66831884202D0208DA9
:102BC000401C2085E06F002806D000230022210051
:102BD0002069E46FA04700E0002040B210F10D0F23
:102BE0000DD17FF00C000BE040B210F10D0F02D1BF
:102BF0007FF00C0004E026677FF0040000E0002076
:102C0000F2BD10B503E0046800F004F820000028CD
:102C1000F9D110BD10B50400002C09D0606800285F
:102C200002D06068FFF79CF82100032000F08EFFBF
:102C300010BD10B508001400002C07D02189FFF743
:102C400007FD2000FFF78CF8002010BD5BB2002BC1
:102C5000FAD1FFF73AFCF8E738B5C0B2802801DBBB
:102C60007F20FFE700230021DFF85C23126812E0D9
:102C7000547DC0B2A0420DD3DFF810432468156A1A
:102C8000641B9C4206D3DFF804030068116A431AF0
:102C90001100507DD268002AEAD1002902D0080034
:102CA000FFF79EFC31BD38B50400E4B2082C0BD010
:102CB000E4B2092C08D0DFF8DC3240F2DC52DFF855
:102CC0000C132048FFF7B0FA00220020DFF8F812BA
:102CD000096811E00B7DE4B2A3420CD1DFF8AC32FD
:102CE0001B680D6A5B1B934205D3DFF8A0020068E6
:102CF0000A6A821A0800C9680029EBD1002802D0AC
:102D00000021FFF7EEFB31BD10B500220020DFF8F7
:102D1000C01209680DE0DFF874321B680C6A1B1BD7
:102D2000934205D3DFF8640200680A6A821A080039
:102D3000C9680029EFD1002801D0FFF751FC10BD70
:102D4000581F01083427010838B50500012000F09C
:102D5000CEFE0400002C21D1FFF7D6FF012000F0A9
:102D6000C6FE0400002C19D10920FFF79CFF0120AA
:102D700000F0BDFE0400002C10D10820FFF793FFE7
:102D8000012000F0B4FE0400002C07D12800C0B2DE
:102D9000FFF762FF012000F0AAFE0400002C2DD0F6
:102DA00094210022200002F075FA657541F2D0608E
:102DB000A4F8600040F668306085608D2085FF20B3
:102DC000A0724FF4067060860620A4F8400006202A
:102DD000E0875FF0FF3020860120A4F848006B48B0
:102DE000006820626A480078607741F2D060A4F8F9
:102DF0004A007848E0677848C4F88C00200032BD6B
:102E000010B50400207D00281DD0207D0A281AD08E
:102E1000207D012817D0206F002804D0206FFEF7F6
:102E20009FFF002020675FF0FF302086A06EFFF735
:102E3000E8FEE06EFFF7E5FE0020A066A06EE0660B
:102E40000020A4F8640010BD10B50C000168A14278
:102E500003D10168C968016009E0006800E0C0684A
:102E6000002804D0C168A142F9D1E168C160002006
:102E7000E0602000FFF7C4FF207D0A280CD0207DF1
:102E8000012809D0A07EC00706D5A07E50F0020020
:102E9000A076200000F09EFA207D012813D0A06EBD
:102EA000002806D03B4B40F253724D494B48FFF788
:102EB000BBF9E06E002806D0364B40F25472494907
:102EC0004648FFF7B1F9002020750020E08210BDD0
:102ED000454800682D490968081843490860424878
:102EE00000687047A43001085C27010810B5040091
:102EF000080002F003FA002802D1200080B20CE0A2
:102F0000B0F92A0000B2002805D02838A4B280B257
:102F1000844200D30400200080B210BD38B5040004
:102F2000080003E0C568FFF75BFB2800002805D018
:102F3000016822689142F5D0C068F7E731BD38B525
:102F400004000D00002C1ED0206800281BD01E4855
:102F500001682000FFF7E2FF244801682000FFF726
:102F6000DDFF002D0FD0286800280CD02048006815
:102F700007E0C168026823689A4201D12A680260AA
:102F800008000028F5D131BD902B010898FC0020E5
:102F900002FD0020181C01088823010804230108F1
:102FA000302301080C210108D8360108D434010867
:102FB000B84C0A00F82401005C230108AC27010882
:102FC0003C21010884270108A4FC0020C434010826
:102FD000A8FC0020332C000800DD6D003427010818
:102FE00078320108C03001080C0400209CFC00204D
:102FF000A0FC00202DE9F04104000D0010001E008F
:103000000022401910F1140189B20120FEF71CFCC6
:103010000700002F3ED07889ADB215F11401884227
:1030200008DADFF824337322DFF82013DFF82003F7
:10303000FFF7FAF8D7F80480E08AFFF7D3F8A8F88A
:103040000000208BFFF7CEF8A8F80200C8F8046053
:10305000606AFFF7CEF8C8F80800ADB2042095FB0F
:10306000F0F0401D000350F0100080B2FFF7BAF8F6
:10307000A8F80C00608DFFF7B5F8A8F80E00002046
:10308000A8F810000020A8F81200606A618D10FAFC
:1030900081F0E0623800BDE8F08138B50400A06E30
:1030A00000281AD0A56E00E02D6828680028FBD102
:1030B000E8688089FFF796F8072108420DD10120C2
:1030C000FFF790F8E96889890843E9688881A07E5C
:1030D00050F02000A076002003E00121200000F045
:1030E00070F832BD2DE9F04781468A4616009846B1
:1030F000089CE00701D5042000E00020A10701D5CD
:10310000002100E00021220701D5002200E000227A
:1031100008181718032000F0EAFC0500002D04D160
:103120005046FEF71DFE002049E0AC7200202860EA
:10313000C5F804A0BAF808003900C9B289B28842BB
:1031400008D2DFF80432BA22DFF84C15DFF80002AB
:10315000FFF76AF8BAF80800FFB2C01B28811421F3
:103160005046FEF7F1FD002804D02800FFF752FD7D
:10317000002024E068684068E860B9F81600FFF7AE
:1031800031F8E9680880B9F81800FFF72BF8E9680A
:1031900048804046FFF72DF8E9684860FFB20420F8
:1031A00097FBF0F0401DF6B256EA003080B2FFF710
:1031B00019F8E96888810020E96848822800BDE89C
:1031C000F0872DE9F04182B004000D0000265FF089
:1031D00000080320054207D15B4B40F21B32DFF8A9
:1031E0000C165B48FFF720F8B4F86200082805DAEF
:1031F000B4F862004FF6FD71884208D3E80706D4A0
:10320000A07E50F08000A0765FF0FF3099E0A80724
:1032100000D50126F00701D5042000E00020B10709
:1032200001D5002100E00021320701D5002200E095
:103230000022081812EB000800225FFA88F84146C5
:1032400089B20020FEF700FB0700002F06D1A07E08
:1032500050F08000A0765FF0FF3072E078895FFA6E
:1032600088F81FFA88F8404507D2374B40F24132C0
:10327000DFF87C153648FEF7D7FFF6B20096A36D4F
:103280002A00D2B239002000FFF72CFF0600002EE2
:1032900006D1A07E50F08000A0765FF0FF3050E0B5
:1032A000F0680421B0FBF1F202FB1102002A07D002
:1032B000254B40F24932DFF83C152548FEF7B4FFB4
:1032C0003089002807D0204B40F24A32DFF8281519
:1032D0001F48FEF7A9FFA06E002801D1A66606E0F0
:1032E000A06E00E0006801680029FBD106600020A4
:1032F000A4F864000320054202D0A06D401CA06524
:10330000E80703D5A07E50F02000A0767068FEF795
:10331000A1FDB4F862104018A4F86200B4F862008D
:1033200000280DD0E06E00280AD1A06E002807D139
:10333000054B40F26D32DFF8C4140548FEF774FF08
:103340000020BDE8F6810000B01901089C210108A9
:103350007428010870B584B004000025E06CFEF705
:1033600048FF03000022EDB2290089B22000FFF7D8
:1033700041FE0600002E06D1A07E50F00300A0768C
:103380007FF0010024E0201D01F0B8FF002802D1E9
:103390007FF003050BE0029006200190607A009018
:1033A000A37A221D2100300002F0FFF80500300052
:1033B000FEF7D6FC6DB2002D04D0A07E50F00300C5
:1033C000A07603E0A07E10F0FC00A076280040B2BA
:1033D00004B070BD2DE9F0470400207D012809D11B
:1033E000DFF81C3440F2ED32DFF81814DFF818046F
:1033F000FEF71AFFDFF814040068A04201D1002094
:1034000073E0B4F85C00B4F84810884202D2B4F813
:103410005C5001E0B4F84850D4F86880A07E800782
:1034200013D5B8F1000F0CD0D8F80C104868FEF78F
:10343000E0FE616C401AB8F8081010FA81F085427D
:1034400003D22000FFF786FF4FE0E76E002F04D085
:1034500000E03F6838680028FBD1201D01F04EFFD6
:103460000600002E02D17FF003003EE0002C02D0C7
:10347000206800280BD1002E01D0301D00E0002074
:10348000002802D17FF003002FE000682060B8F12F
:10349000000F31D0D8F80C104868FEF7AAFE616C16
:1034A000401AB8F8081010FA81F0854224D2002D95
:1034B00022D0B4F85C0085421ED1E06E00281BD1FA
:1034C00094F89100002805D1002084F89000012094
:1034D00084F89100A06E002802D10020A4F86400B6
:1034E000A07E10F07F00A0760020BDE8F087404667
:1034F000FFF790FBD4F86880B8F1000FEAD0D8F855
:103500000C104868FEF775FE616C401AB8F8081098
:1035100010FA81F08542DDD3D8F80C008089FEF7DF
:1035200061FE400706D5B64B40F24642B849B64860
:10353000FEF77AFEE06E002817D0A07E44210842F4
:1035400013D1A06E002808D0A06E006800280CD10E
:10355000A06E0089618E884207D2B4F8600000280E
:1035600003D0B4F86200082801DB012000E000204D
:10357000002803D1A07EA0210842ABD0207D0228E4
:1035800009D01020FEF72EFED8F80C1089890843C8
:10359000D8F80C10888132002100404600F07EF8F7
:1035A00040B2002805D0A17E51F08001A17640B242
:1035B0009BE7D8F80000A066207D022803D0A07EFB
:1035C00010F0FC00A076D8F80C104868FEF711FE49
:1035D0008146D8F80C008089FEF704FE03210842DA
:1035E00001D0012000E00020B8F8081019FA81F19C
:1035F0004018E16C091A002900D5E064D8F80C00E5
:103600008089FEF7EFFD0321084201D0012000E090
:103610000020B8F8081010FA81F000283FF467AFD6
:103620000020C8F80000E06E002803D1C4F86C80C8
:1036300047465FE7D8F80C104868FEF7DAFD814688
:10364000F9684868FEF7D5FDB9EB000000281FD5E2
:1036500014F16C0901E0D9F80090D9F800000028B5
:103660000FD0D9F80000C1684868FEF7C2FD824655
:10367000D8F80C104868FEF7BCFDBAEB0000002833
:10368000E9D4D9F80000C8F80000C9F8008031E793
:10369000C7F800803F682DE7A8320108FEB5040096
:1036A0000D0016006068C089012801D0002051E09B
:1036B000686AFEF79EFDE1688860688DFEF792FDFE
:1036C000E168C881686A698D10FA81F0E862E06893
:1036D00010F11407A07AC0070BD5291D40F2B45091
:1036E000FFF704FC80B250F00170FEF782FD3860F5
:1036F0003F1DB5F93000002801D500202886686BF1
:10370000002807D1434800686863E1684868FEF70D
:1037100070FDA863E06861684968401A616849897A
:10372000091A6268518161680989081A616808810B
:10373000E068616848600020E1680882029606201F
:103740000190687A0090AB7A2A1D2900606801F028
:103750002CFF40B2FEBD00002DE9FE4380468946A5
:1037600014001D00002214210120FEF76DF8060050
:10377000002E39D07089142806D2214B40F24D52C8
:1037800025492148FEF750FD77680A98FEF72AFD83
:1037900038800B98FEF726FD78804046FEF729FD1D
:1037A00078604846FEF725FDB86045F21400FEF744
:1037B00019FDB88146F60B00F88100203882002000
:1037C0007882280001F09AFD00280AD00290062095
:1037D000019000200090FF232A002100300001F01A
:1037E000E4FE3000FEF7BCFABDE8F78338150108A7
:1037F000541C0108C0320108382401089C28010823
:10380000B0190108C428010874280108C0FC002070
:10381000D832010898FC00209C21010880B5C16EB7
:10382000002918D0C16E00E009680A68002AFBD19F
:10383000826E0A60C16E81660021C16690F84210F6
:10384000FF2904D090F84210491C80F84210002152
:103850004163FFF7BFFD01BDF8B50400E06E00282D
:103860002AD0E56E2868E06614F1680600E0366844
:10387000306800280CD03068C1684868FEF7B9FC91
:103880000700E9684868FEF7B4FC381A0028EED44F
:103890003068286035602868002802D10020A4F82C
:1038A000640094F84200FF2804D094F84200401CC1
:1038B00084F8420000206063F1BD10B50400E06EA2
:1038C00000282FD0A07E40072CD42000FFF7C4FF93
:1038D000B4F84800B4F85C10884202D2B4F848004A
:1038E00001E0B4F85C00022190FBF1F0A4F84A007A
:1038F000B4F84A00618EB0EB410F04D2608E80B202
:103900004000A4F84A00B4F84A00618E03225143F3
:1039100011FA80F0A4F84800A07E50F00400A076D0
:103920000020208610BD3EB50400E06C401EFEF76E
:1039300060FC0300002200212000FFF75BFB050074
:10394000002D02D15FF0FF3018E0201D01F0D6FC01
:10395000002802D17FF003040BE0029006200190C2
:1039600000200090A37A221D2100280001F01DFEF6
:1039700004002800FEF7F4F9200040B23EBD2DE916
:10398000F04184B00500EE6E002E00D1AE6E002E28
:1039900001D1002061E0F0688089FEF723FCC007B8
:1039A00005D53089002802D15FF0010801E05FF001
:1039B00000085FFA88F8B8F1000F01D0002200E09B
:1039C0000122F068436892B200212800FFF712FB41
:1039D0000400002C02D15FF0FF303EE067685FFA20
:1039E00088F8B8F1000F09D01120FEF7FBFBB98968
:1039F0004CF2FF0211400843B8810BE0606810F1FF
:103A00001401706800893289831A9BB201227068A0
:103A1000FEF724FBF1684868FEF7EBFB401CE96CFD
:103A2000091A002900D5E864281D01F067FC002868
:103A300002D17FF003050BE00290062001900020E8
:103A40000090AB7A2A1D2900200001F0AEFD050090
:103A50002000FEF785F9280040B204B0BDE8F081EF
:103A60000021826811604168C91C8A089200002107
:103A700007E083681B68136083681A6003889A18DC
:103A8000491C43889942F4DB704710B5002406E0D6
:103A90003948A4B250F82400FFF7E2FF641CA4B236
:103AA0000D2CF5D310BD70B5040000F0C7FC060066
:103AB000A0680568002D15D02868A168086004205A
:103AC000B5FBF0F101FB1051002906D02B4B40F261
:103AD00049122B492B48FEF7A7FB300000F0B7FC3A
:103AE000280003E0300000F0B2FC002070BD80B57B
:103AF000C0B20D2808DB214B40F287122249214831
:103B0000FEF792FB002005E01B49C0B251F82000EF
:103B1000FFF7C9FF02BD38B504000D000420B5FB56
:103B2000F0F101FB1051002906D0144B40F29D1218
:103B300016491448FEF778FB00F080FCA16809687C
:103B40002960A1680D6000F082FC31BD80B5C0B273
:103B50000D2807DB094B40F2DB120D490948FEF73F
:103B600063FB07E0002905D0034AC0B252F82000E9
:103B7000FFF7D1FF01BD0000BC1E0108641B010856
:103B8000002B0108BC260108A42D0108C42D010842
:103B9000E02F010880B5FEF75AFB8A48006800282C
:103BA00003D189480068002805D000228749FA20FF
:103BB00000F039F802E000208549086001BD80B5B9
:103BC0008348006800280FD17E480068002803D190
:103BD0007D480068002807D001207D490860002248
:103BE0007A49FA2000F01FF801BD10B504006068A2
:103BF000804722007749206800F015F810BD10B505
:103C0000012409E0744810EBC4027249724850F86C
:103C1000340000F008F8641C052CF3D302F0BFF860
:103C20006E49086010BDF8B504000E0017000A20A8
:103C3000FFF75DFF0500002D08D1002D05D1684B71
:103C4000D42268496848FEF7EFFA52E002F0A7F87C
:103C500066490968002903D10021604A106002E02A
:103C60005E490968411A00202860AE60EF600819BB
:103C700068605E480068002802D15C48056038E052
:103C80005A480068406884420CD25848006840682E
:103C9000001B56490968486054480068286053482A
:103CA000056026E05148006800E00068002820D048
:103CB00069684268891A69600168002904D06968E6
:103CC000026852689142F0D20168002906D001686A
:103CD00049686A68891A0268516007E069688C421D
:103CE00004D2424909684968091969600168296074
:103CF0000560F1BDF8B53D48006800282BD002F002
:103D00004EF836490968441A0025384801680029E8
:103D10001ED0486884421BD30125304800684A6899
:103D200010182E4A10604868241A08682F4A10603C
:103D30008E68CF680A20FFF709FF3000002807D0FF
:103D40002B4800F059FB3800B047294800F05BFBD6
:103D5000EDB2002DD8D1F1BD80B52448006800280F
:103D600002D15FF0FF300FE002F019F81B4909683B
:103D7000401A1E4909684968814201D2002003E0C7
:103D80001A4909684968081A02BD38B504000D00CF
:103D900001E0FFF7AFFF15480068002805D10022B9
:103DA0002900200000F0E2FA0BE0FFF7D5FF002821
:103DB000EFD002002900200000F0D8FA10F1010F26
:103DC000E7D031BDA4FC0020A8FC0020953B0008F2
:103DD000DCFC0020EB3B00083C290108D8FC00205B
:103DE000301A0108F019010814290108D4FC002038
:103DF000D0FC002010B50400DFF8D804006884422D
:103E000009D2DFF8D43440F25D12DFF8D014DFF8C5
:103E1000D004FEF709FADFF8CC040068844209D325
:103E2000DFF8B4344FF4AF72DFF8BC14DFF8B0043D
:103E3000FEF7FAF92079002809D0DFF89C3440F227
:103E40005F12DFF8A814DFF89804FEF7EDF9208878
:103E5000B0F5205F09D9DFF880344FF4B172DFF894
:103E60009014DFF87C04FEF7DFF9DFF868040068DF
:103E70002188081884421BD00179002918D1DFF865
:103E800064140968884213D0DFF868140968814215
:103E900002D1DFF860140C6001882180DFF834144F
:103EA0000968611ADFF82C241268008880184180A4
:103EB000DFF82004006861880818A04216D0017954
:103EC000002913D1DFF82C140968A14202D1DFF8D0
:103ED0002414086021880180DFF8F8130968401A6B
:103EE000DFF8F013096822885118488010BD80B5AA
:103EF000DFF8040480088000DFF8D8130860DFF8DA
:103F0000D40300684FF4205101800021418000213A
:103F10000171DFF8C003006810F52050DFF8C4130A
:103F200008600120DFF8BC13096808714FF42050C5
:103F3000DFF8B013096808804FF42050DFF8A413AD
:103F400009684880DFF88C030068DFF8A813086070
:103F5000DFF8A80300F03EFA002809D0DFF8783334
:103F60004FF4CC72DFF89813DFF87403FEF75CF9B6
:103F700001BD10B50400002C4CD014F00300002843
:103F800009D0DFF854334FF4D672DFF87813DFF836
:103F90005003FEF749F9DFF83C030068844204D37C
:103FA000DFF840030068844209D3DFF82C3340F285
:103FB000AF12DFF85413DFF82803FEF735F9C548D0
:103FC0000068844204D3DFF81C030068844204D3F1
:103FD00000F034FA00F03BFA1CE0DFF8200300F0B8
:103FE0000BFA083C2079002806D1BB4B4FF4E07255
:103FF000C649BB48FEF718F900202071BD4800688B
:10400000844201D2BB4804602000FFF7F3FEBB48A6
:1040100000F0F9F910BD2DE9F04104000D00ADB23A
:10402000E81C4FF6FC7111EA0005ADB20C2D00D270
:104030000C25ADB2B5F5205F01D9002091E0A5486F
:104040000068844203D3A7480068844206D3A24B89
:104050004FF4FA72AE49A248FEF7E6F89D480068B0
:10406000844203D39F480068844205D300F0E6F9F8
:1040700000F0EDF9200074E0B4F1080695480068FE
:10408000371A3088BFB2C01BB0F108081FFA88F891
:10409000ADB2A84506D2904B40F206229D49904809
:1040A000FEF7C2F81FFA88F8ADB2A84501D2002089
:1040B00057E0ADB21FFA88F8454501D1200050E025
:1040C0008E4800F099F98348006831880A18107901
:1040D00000281FD11088E9190831864B1B689342CC
:1040E00005D17C4A126889B28A18824B1A60794AD3
:1040F000126889B28A1800231371108057803180AA
:104100001088B0F5205F28D0724800681288101817
:10411000418022E01FFA88F8ADB215F11400804505
:104120001BD3E81910F108016A48006889B20A181F
:1041300070480068824201D26E480260002010710F
:1041400030881080578031801088B0F5205F04D00F
:1041500060480068128810184180684800F053F9E0
:104160002000BDE8F08138B50400A4B2002C01D1D4
:104170000020ADE0A4B2E01C4FF6FC7111EA00048F
:10418000A4B20C2C00D20C24A4B2B4F5205F01D947
:1041900000209DE0594800F02FF9564800684D492D
:1041A0000968401A03E04B49096880B2405A80B25E
:1041B000A4B2D4F52051884280F086804549096830
:1041C00080B2451829790029EDD1298880B2091AD1
:1041D0000839A4B2A142E6D3298880B2091A083965
:1041E000A4B214F11402914217D321180831394AAC
:1041F000126889B28A18002313712B8813805080AB
:104200002980012028711088B0F5205F07D031483F
:10421000006812881018418001E00120287135489B
:104220000068854221D13348006803E029490968C4
:10423000008840180179002903D02A49096888427A
:10424000F4D12C4908602B48006826490968884247
:104250000BD0284800680079002806D01E4B40F299
:10426000CF222D491E48FDF7DFFF244800F0CBF890
:104270001C48006815FA84F10831884206D2164BB2
:104280004FF4357225491648FDF7CEFF15F10800A9
:104290000421B0FBF1F202FB1102002A06D00E4B02
:1042A00040F2D6221E490E48FDF7BEFF15F003006E
:1042B000002806D0084B4FF436721A490848FDF71B
:1042C000B3FF15F1080003E00C4800F09CF8002053
:1042D00032BD000004FC0020281B010888310108C1
:1042E0009426010808FC0020702F01088C2F01087B
:1042F000802201080CFC0020D790002010FC002038
:10430000A82F0108B82A0108A0310108A833010824
:10431000B8310108842D0108C42F0108EC1F0108E1
:104320001C200108DC2A01081CB504004B48D0E918
:104330000023CDE9002300910021684601F063FECF
:1043400020602068002802D15FF0FF3000E00020EC
:1043500016BD80B50022006801F05CFE002801D186
:10436000002001E05FF0FF3040B202BDFEB5040066
:104370000D00160001F02FFD0700002E10D03200B6
:104380002168684601F076FE0098102805D1019852
:10439000286001F020FDC01B0DE05FF0FF300AE057
:1043A0005FF0FF322168684601F064FE01982860E2
:1043B00001F011FDC01BFEBD0068002801D10020E6
:1043C00000E00120704780B5254801F036FD254901
:1043D000086001BD10B582B0040023480068009059
:1043E000684601F02AFD20602068002802D15FF0B5
:1043F000FF3000E0002016BD80B55FF0FF3100689F
:1044000001F020FD01BD80B5006801F057FD01BD40
:10441000F0B585B006000F0014001D006846142199
:1044200001F088FE009601970A98ADF808000495FF
:104430002100684601F0DAFC05B0F0BD80B55FF000
:10444000FF310848006801F0FDFC012002BD80B585
:104450000448006801F032FD01BD0000C0360108CB
:104460000437010858FC00200037010862B38B07AD
:1044700008D0521E11F8013B00F8013B00F02480E7
:104480008B07F6D1830740F0208000BF103A07D396
:1044900030B4B1E83810103AA0E83810F9D230BC86
:1044A000530724BFB1E80810A0E8081044BF51F832
:1044B000043B40F8043BD20724BF31F8022B20F81C
:1044C000022B44BF0B7803707047083A07D3B1E85A
:1044D0000810083A40F8043B40F804CBF7D25307E1
:1044E000E4E70268531C0360117070472DE9F04F38
:1044F000A1B08046002017461D4602910B900DF199
:10450000440A6FF000490AE017F8011B0298C047FF
:104510000028029000F0A7820B98401C0B9038787E
:1045200008B90B98A1E22528EED10020059006904D
:104530000790089009900A9001E040F0010017F8F8
:10454000011F2029F9D023290DD02B2904D02D2992
:1045500006D030290AD00CE040F0020080B2EEE72D
:1045600040F00400FAE740F00800F7E740F01000E0
:10457000F4E72A290ED12968296051F8042B296013
:10458000002A0D9204D5514240F004000D9180B2F2
:104590007F1C11E000210D9109E00D99494505D0DE
:1045A00001EB810302EB430130390D917F1C3A7816
:1045B000A2F130010A29F0D339782E2903D04FF027
:1045C000FF310C911DE017F8011F2A2907D1296836
:1045D00029607F1C51F8042B29600C9211E0002106
:1045E0000C9109E00C99494505D001EB810302EBE0
:1045F000430130390C917F1C3A78A2F130010A292D
:10460000F0D3ADF838000FF67040397801F096FD20
:1046100008B117F8010B8DF83A009DF83A006828A8
:1046200002BF39786829622005D06C2804BF387829
:104630006C2803D171208DF83A007F1C11A80490DA
:1046400017F8014BB4F1250029D01C3800F0C280C6
:10465000001F022840F2BE80133800F0E3800938C2
:1046600000F0B880801E00F04A81401E00F02381D7
:10467000401E022840F2AE80001F00F01C81401F47
:1046800079D0401E00F0CE80401E24D0C01E0BD03A
:10469000801E00F0C780C01E00F0C48039E12520D4
:1046A0008DF8440001203DE12868286050F8046B33
:1046B000286003960C9C002C04D5304601F04AFD7E
:1046C000044606E022460021304601F05FFD00B1BD
:1046D000841B069427E1296829603C2451F8040BC7
:1046E00029600021CDE9000111A80390DDE9000156
:1046F000049E11B908B90C9AB2B10206120FA0EBD0
:1047000002123032D2B2631E3A2AA8BF2732000901
:104710009A5540EA0170090908BF00281C4603D0D9
:10472000039AA3199A42E8D3A0190390C4F13C015B
:104730000C980691814209DA401A08904FF6EF7101
:10474000BDF838000840ADF83800ECE0002840F132
:10475000EA809DF8380000F01400102840F0E38053
:104760000D98059A801A089A801A441A012CC0F2F2
:10477000DA800894D7E09DF83A0062281AD06828B9
:1047800006D06A280CD06C281CD0712808D019E0FB
:104790002868286050F8041B28600B980880C2E045
:1047A0002868286050F8042B28600B98C117C2E9CC
:1047B0000001B8E02868286050F8041B28600B98B6
:1047C0000870B0E02868286050F8041B28600B9837
:1047D0000860A8E02868C01D20F007022A60D2E91E
:1047E000000108322A60CDE90001002902D50598B0
:1047F0002D210AE0BDF83800810702D505982B214C
:1048000003E0C00705D50598202100F80A10401CD8
:10481000059011A80599081803902146684600F0F4
:10482000E1F980E09DF83A006C280DD0712818BF9E
:104830006A2809D12868C01D20F007022A60D2E941
:10484000000108322A6005E02968296051F8040B4C
:1048500029600021CDE900019DF83A00682803D1C4
:10486000DDE9000180B20BE0622803D1DDE900013F
:10487000C0B205E0742818BF7A2804D1DDE9000130
:104880000021CDE900019DF8380000072ED5DDE9B3
:104890000001002908BF002828D044F02000782813
:1048A00024D10598302100F80A10401C411C0591C4
:1048B00000F80A401AE09DF83A00294600F0D8F8BE
:1048C000CDE90001002902DA05982D210AE0BDF8A2
:1048D0003800810702D505982B2103E0C00705D5D4
:1048E0000598202100F80A10401C059011A8059990
:1048F000081803902146684600F0F1F813E0012003
:1049000005902868286050F8041B28608DF8441032
:1049100009E025208DF84400012005901CB18AF89B
:104920000140022005900D980599401A0899401AF7
:104930000699401A0999401A0799401A0A99441A87
:104940009DF83800400710D42020012C8DF840003D
:104950000BDB2646012310AA6946404600F074FC92
:10496000002840F08080761EF4D1DDF814B0BBF151
:10497000000F11AE0CD016F8011B0298C04700289A
:10498000029070D00B98401CBBF1010B0B90F2D140
:1049900030208DF84000089E012E09DB012310AA6B
:1049A0006946404600F050FC00285CD1761EF5D1E7
:1049B000DDF818B0039EBBF1000F0CD016F8011BF8
:1049C0000298C047002802904DD00B98401CBBF1C4
:1049D000010B0B90F2D130208DF84000099E012E82
:1049E00009DB012310AA6946404600F02DFC00288F
:1049F00039D1761EF5D103980699DDF81CB00E1852
:104A0000BBF1000F0BD016F8011B0298C0470290B3
:104A100048B30B98401CBBF1010B0B90F3D1302035
:104A20008DF840000A9E012E08DB012310AA69467A
:104A3000404600F009FCB0B9761EF6D19DF838006A
:104A400040077FF56CAD2020012C8DF84000FFF66B
:104A500066AD012310AA6946404600F0F5FB10B987
:104A6000641EF6D15BE54FF0FF3021B0BDE8F08F5A
:104A7000622826D068281DD06A2808D06C2827D044
:104A8000712804D0742823D07A280CD020E008683C
:104A9000C01D20F007000860D0E90023083008603E
:104AA0001946104670470A680A6052F8040B0A60FB
:104AB000002170470A680A6052F8040B0A6000B2CD
:104AC0000BE00A680A6052F8040B0A6040B204E086
:104AD0000A680A6052F8040B0A60C11770472DE992
:104AE000FA4E05460A462F696F2A08BF082405D0EA
:104AF00041F02000782814BF0A2410243C26D5E970
:104B00000001642A18BF692A81468A4605D1002916
:104B100003DAD9F100096AEB4A0ABAF1000F08BFBB
:104B2000B9F1000F0CD1286B50B9082C36D195F88B
:104B30003800000732D530203B2687F83B002DE0B7
:104B4000E31748465146224601F04CFBA4FB0023E4
:104B5000A9EB02023032D2B2A6F1010B3A2A5E462C
:104B600003DB9DF80030513B9A180BF80720814673
:104B70005FEA010A08BFB9F1000F03D0E868F11934
:104B80008842DDD3082C09D195F83800000705D5F7
:104B9000F05D302802D0761E3020F055C6F13C0082
:104BA000A861F119E960296B884208DA081A2862BD
:104BB0004FF6EF71288F08402887BDE8F38E002953
:104BC0000ED595F8381001F01401102908D1696B41
:104BD0006A69891A2A6A891A0E1A012EA8BF2E62DA
:104BE000BDE8F38E2DE9F24F04468EB0D4E9000102
:104BF000CDE9020104AF9DF8380040F0200BBBF175
:104C0000610F0AD0206B002848BF062004D408BFDB
:104C1000BBF1670F01D1012020636168C1F30A5025
:104C200040F2FF7290421CD1080304BF20680028A4
:104C300009D10320A0619DF8380061381A2836D3C5
:104C40000FF2486108E00320A0619DF83800613848
:104C50001A2829D30FF22C61E0680322FFF706FC23
:104C6000BEE1012816DA204601F033FB012811DBF2
:104C700000250020BBF1610F20D1E168302201F84E
:104C8000012B4A1CE2609DF83820612A0CBF782273
:104C900058220FE0626840F2FE3161F31E52451A5D
:104CA00062604FF0FF30E5E70FF2D451D4E70FF226
:104CB000D851D1E70A706169891C616110B9002679
:104CC000002584E1BBF1610F40F09880206B002843
:104CD0004CBF2126461CD4E900ABDDE902010022CD
:104CE000002301F017FB36B23ABF8BF00040CDE94C
:104CF00002A0CDE902AB06F101082D1FB8F1010FAA
:104D00008DF810200DF1110736DBDDE902010022DC
:104D1000002301F017FB2FD21C2102A801F02AFB6F
:104D2000DDE9020101F0B0FBA8F10708B8F1010FBD
:104D3000814609DB01F0D4FB02460B46DDE90201A6
:104D400001F0E6FBCDE90201F81D072105E009F0BD
:104D50000F0200F8012D4FEA2919B9F1010F01DB0B
:104D6000491EF4D5491E5CBF002200F8012DF9D57B
:104D7000C71DB8F1010FC8DA0DF11100391AB1429F
:104D8000B8BF0E4636B230000DF111072FD488425D
:104D900006DA04A9411849780829A8BF0F2100DACA
:104DA000002104AA821800E0761E12F80139401E84
:104DB0008B42F9D00F2904D104A941184A78521C1A
:104DC0004A70002802D504AF761C2D1D36B2701E25
:104DD0000DD4C1190A783032D2B23A2A03DB9DF8D9
:104DE00038303A3B9A18401E01F80129F2D5206B61
:104DF000002840F1EC80701E2063E8E0DDE902014C
:104E00000022002301F086FA3CBF81F00041CDE989
:104E100002012DB247F2975068434B49DFF82C91BD
:104E200090FBF1F52DB2C5F1070ABAF1010F9046DA
:104E30001CDBDDE902675FEACA7007D542464B46D4
:104E40003046394601F024FC06460F4640464946A6
:104E500042464B464FEA6A0A01F01AFCBAF1000FCB
:104E600080468946E7D1CDE9026724E0CAF1000A0D
:104E70000026374F14E05FEACA7007D542464B461A
:104E80003046394601F004FC06460F464046494686
:104E900042464B4601F0FCFB4FEA6A0A80468946CF
:104EA000BAF1000FE7D1DDE9020132463B4601F0DD
:104EB000C1FCCDE90201BBF1660F0CBF05F10A0090
:104EC0000620216BDFF88C904618142EA8BF1326FD
:104ED00030208DF810000DF11107012E3CDBDDE9CB
:104EE000020101F0E7FA07F1080104220A23B0FBEE
:104EF000F3F303EB8307A0EB4700303001F8010C1C
:104F00000A20B3FBF0F000EB8007A3EB470330333C
:104F1000521E01F8023DE9D1083E012E01F10807B9
:104F2000DBDBDDE9020101F0C5FA01F0E3FA02463C
:104F30000B46DDE9020101F0EBFA00224B4601F0DD
:104F4000A7FBCDE90201CAE7A086010000002440CA
:104F50000000F03F84D797410DF11100381A0DF190
:104F6000110702E0401E6D1E7F1C39783029F9D0F0
:104F7000BBF1660F02D12DB2691C04E0BBF1650FD5
:104F80000CBF01210021226B8E1836B2B042B8BF8F
:104F9000064636B231001AD4814204DAC85D35289B
:104FA000A8BF392000DA3020CA19521E00E0761E50
:104FB00012F80139491E8342F9D0392802D1C85D5F
:104FC000401CC855002902D57F1E761C6D1C2DB2D1
:104FD0009DF83810009533B23A46204600F003F8A9
:104FE0000FB0BDE8F08F2DE9F043054685B01E46B1
:104FF000D5F83080012E8946174602DA01260FF2D5
:10500000902749F02000BDF93040662808BF641C95
:1050100017D0672840F0828014F1040FC0F284801A
:10502000444580F2818095F83800641C000702D462
:105030004645B8BFB04624B2B8EB040848BF4FF0AD
:10504000000824B2E868A969012C25DA4A1C30233B
:105050000B54B8F1010F03DA95F83810090702D59F
:105060002E211154521CAA6118EB040FB8BFC8F1CD
:10507000000424B26142A0446962B045B8BF46460C
:10508000AB6936B2EE61324639461818FFF7EEF9D1
:10509000A8EB0600A862C0E00818A64218DA32465B
:1050A0003946FFF7E3F9A9697118A01BB8F1010FA0
:1050B000A961686203DA95F83800000705D5EA6847
:1050C0002E208854E869401CE861C5F82880A4E0D7
:1050D00022463946FFF7CAF9A8692018361BB8F1ED
:1050E000010F03DA95F83810090703D5EA682E2175
:1050F0008154401C36B2A861B045B8BF4646E86846
:10510000AB6936B23246E1191818FFF7AFF9A86952
:105110003018A861A8EB060068627EE0B9F1610F63
:1051200016D14FF0700918E0464504DA95F83810AA
:10513000090758BFB046B8F1010848BF4FF0000852
:10514000B9F1670F14BF4FF045094FF0650904E04E
:10515000B9F1410F08BF4FF05009A969E8684A1C2E
:10516000AA61B8F1010F17F8013B0B5403DA95F867
:105170003810090717D5531CAB612E211154B8F113
:10518000010F10DB761E36B2B045B8BF464636B2C8
:10519000324639461818FFF769F9A8693018A8612E
:1051A000A8EB06006862E868A9690918200081F880
:1051B000009003D42B2048708F1C03E02D224A70EE
:1051C0008F1C644200260DF1080808E00A22684698
:1051D00001F05BFC019808F8010B761C009C21B2E1
:1051E0000129F3DA022E06DA49F02000652804BF0F
:1051F000302007F8010B4EB9302007F8010B07E00B
:10520000761E02A8305C303007F8010B012EF7DA69
:10521000E868A9690818381AE86195F8380000F0BC
:10522000140010280DD16869A9690818696A08185E
:10523000E9690818A96A0818696B8842BCBF081A8E
:10524000286205B0BDE8F083F8B504460D46164661
:105250001F46002077B116F8011BA868A047A86078
:1052600030B1E86A401CE86200207F1EF3D1F2BD35
:105270004FF0FF30F2BD0000686A6C747A4C000099
:105280006E616E004E414E00696E6600494E4600EA
:105290003000000062F30F2262F31F42401810F04A
:1052A000030308D0C91A1FD3DB0748BF00F8012D3C
:1052B00028BF20F8022D130030B4144615461039CB
:1052C00028BF20E93C00FAD8490728BF20E90C0094
:1052D00048BF40F8042D890028BF20F8022D48BFA0
:1052E00000F8012D30BC7047C91818BF00F8012D17
:1052F000CB0728BF00F8012D7047000010B4010053
:10530000DFF8A803006800E00068002819D090F8D2
:10531000332012F00502052AF6D14268002AF3D0A4
:105320000A6883681A404368846823409A4221D0FF
:1053300090F833209207E7D40A68C3689A42E3D111
:1053400018E0DFF86C03006800280ED0DFF8600377
:10535000006890F8330010F00500052805D1DFF84B
:10536000500300684068002801D1002002E0DFF807
:105370004003006810BC70472DE9F04704000D00A1
:105380005FF0010866683078C0B20009C0B2042836
:1053900004D02000FCF7E4FC002004E1307810F099
:1053A0000F07BFB2BF007088FCF71CFF8146208941
:1053B0001FFA89F9814504D2494689B22000FCF7D9
:1053C000D3FB6089BFB2B84207D320891FFA89F99D
:1053D000484502D3BFB2142F04DA2000FCF7C0FC0A
:1053E0000020E0E03069B3494861F068B1490861E4
:1053F000B048007D10F0F000E0280BD195F83300A4
:10540000C00704D56868002801D0A94635E05FF0E0
:10541000000932E05FF0010AA94699F83300C0079D
:1054200011D5D9F8040000280DD0A2484069D9F858
:105430000410884206D049469E484069FCF7ACFEFD
:10544000002800D019E0BAF1000F0DD09948007D76
:10545000C0B27F2802D15FF000090EE05FF0000AC1
:105460009248D0F8009001E0D9F80090A94501D108
:10547000D9F80090B9F1000FCFD1B9F1000F0BD1DD
:10548000707A112808D1BFB2B8194088B0F5884F9A
:1054900002D1A9465FF00008B8F1000F15D0854889
:1054A0000069002811D0290082480069FCF774FEC9
:1054B000002805D17F48007C10F0F000E02804D1DE
:1054C0002000FCF74DFC00206DE0B9F1000F04D185
:1054D0002000FCF745FC002065E0F0884FF63F71A6
:1054E000084208D0200001F006FD0400002C01D184
:1054F000002058E066686F48C0F800906D4845602D
:105500006C488660307810F00F0080B280006949E6
:105510008881380000B2414209B22000FCF714FC37
:10552000707A01280DD0062806D011280ED1290046
:10553000200001F078FF23E029002000FAF724FE84
:105540001EE02900200002F055F919E049465948AB
:105550004069FCF721FE00280FD15648007D10F06D
:10556000F000E02809D0390009B22000FCF7F2FB76
:1055700066600221200002F016FA2000FCF7F0FB22
:1055800000204C49086000204A49486000204949F1
:105590008860002047498881002046490861002032
:1055A000444948610020BDE8F0873EB50C00089DE5
:1055B000002A05D0002902D00968002900D12C1D3D
:1055C00002950799019106990091DBB2210000F044
:1055D00001F83EBD2DE9F84304000E00170099467E
:1055E000E089012806D0344B40F233323349344845
:1055F000FCF71AFE002F40D05FF0140814212000A1
:10560000FCF7A2FB002802D07FF001004BE06568A8
:105610006089142806D2284B40F261322949284873
:10562000FCF702FE85F808900998687238682861CE
:105630001FFA88F8042098FBF0F050F04000287022
:10564000089868702089FCF7CDFD68800020E8800C
:105650001D480088FCF7C6FDA8801B480088401C38
:1056600019490880002E03D118480068E86001E05D
:105670003068E8600020688103E065682869009070
:105680006F460A98418D002909D0418D22899142A7
:1056900005D23A000100200001F048FD03E03A0085
:1056A000210043699847BDE8F283000048FC0020D0
:1056B0004CFC00201CFB002030190108603501085B
:1056C0001C260108BC1F0108E4FC0020F03601087C
:1056D00000B587B000200090DFF87406006850F035
:1056E0000100DFF86C160860DFF86406006810F04F
:1056F00001000090009800200090DFF85406006838
:1057000050F00200DFF848160860DFF84406006831
:1057100010F002000090009800200090DFF83006A2
:10572000006850F00400DFF828160860DFF8200653
:10573000006810F004000090009800200090DFF84E
:105740001006006850F02000DFF804160860DFF84B
:105750000006006810F020000090009800200090E3
:10576000DFF8EC05006850F04000DFF8E415086051
:10577000DFF8DC05006810F0400000900098002081
:105780000090DFF8CC05006850F08000DFF8C0150D
:105790000860DFF8BC05006810F0800000900098F9
:1057A00000200090DFF8A805006850F48070DFF852
:1057B000A0150860DFF89805006810F4807000906C
:1057C0000098032004900220029001200390002002
:1057D00005904FF48070019001A9DFF8780502F080
:1057E00043F90320049002200290012003900B2033
:1057F00005908620019001A9DFF8580502F034F9E0
:105800000320049002200290012003900B200590B9
:105810004FF47050019001A9DFF83C0502F024F923
:105820000320049002200290012003900B20059099
:105830003220019001A9DFF8240502F015F90320B8
:1058400004900020029000200390002005904FF467
:105850008070019001A9DFF8000502F005F900222F
:1058600007213D2002F065FA3D2002F073FA002086
:105870000090DFF8DC04006850F00070DFF8D0140E
:105880000860DFF8CC04006810F000700090009809
:1058900000200090DFF8B804006850F08060DFF866
:1058A000B0140860DFF8A804006810F08060009071
:1058B000009800200090DFF89804006850F0006025
:1058C000DFF88C140860DFF88804006810F00060CE
:1058D0000090009807B000BD80B5DFF88404006830
:1058E00000F068FB01BD10B588B0040001A8DFF826
:1058F00074140CC90CC008390838DFF86C04DFF8E0
:105900006C14086001A8DFF8641448610120DFF816
:105910005C1448604FF48040DFF8501488604FF406
:105920000060DFF84814C8605FF40000DFF83C1442
:1059300008620120DFF8341488610020DFF82C149D
:10594000C8610220DFF824140882DFF8200402F086
:1059500011FA002805D194F8330050F0040084F8BF
:1059600033000423DFF80824DFF80814DFF8FC0311
:1059700002F06EFB0423DFF80024DFF80014DFF8E8
:10598000EC0302F0A0FB062084F82C00022084F82F
:105990002D00002084F82E00002084F82F00002025
:1059A00084F83000002084F83100002084F83200B0
:1059B00040F2DC50608594F8330050F00A0084F81F
:1059C0003300DFF8BC03006800900121684600F056
:1059D0009EFADFF88C13086003A8DFF8A8131422DE
:1059E000FEF754FD210003A800F000FADFF87C0365
:1059F00002F05FFD08B010BD2DE9F047DFF86C0341
:105A0000C06A856800265FF0000800245FF0000986
:105A1000DFF85803C76A5FF000088A460EE02200EC
:105A2000DAF8040019EB000118EB05094846FEF707
:105A30001DFD14EB0808A619DAF800A0BAF1000F52
:105A400032D03868002802D57FF0070031E0BAF87C
:105A50000A405FF000090DE0BD68A8F2F450041997
:105A600009F2F450B0EB080906F2F450B0EB080666
:105A70005FF0000818EB040040F2F5518842CED3E5
:105A800040F2F450B0EB0802DAF8040019EB000120
:105A900018EB05052800FEF7E9FCFF6838680028C8
:105AA000DAD57FF0070004E03100B04802F049FB8E
:105AB0000020AE49096841F21402515889060BD5FD
:105AC0002021AA4A126841F2140399500021A74AE2
:105AD000126841F20403995040B2BDE8F0872DE905
